:020000040800F2
:1000000000000320C50200081503000815030008BE
:100010001503000815030008150300080000000080
:1000200000000000000000000000000015030008B0
:100030001503000800000000150300081503000860
:100040001503000815030008150300081503000830
:100050001503000815030008150300081503000820
:100060001503000815030008150300081503000810
:100070001503000815030008150300081503000800
:1000800015030008150300081503000815030008F0
:1000900015030008150300081503000815030008E0
:1000A00015030008150300081503000815030008D0
:1000B00015030008150300081503000815030008C0
:1000C00015030008150300081503000815030008B0
:1000D00015030008150300081503000815030008A0
:1000E0001503000815030008150300081503000890
:1000F0001503000815030008150300081503000880
:10010000150300081503000815030008150300086F
:10011000150300081503000815030008150300085F
:10012000150300081503000815030008150300084F
:10013000150300081503000815030008150300083F
:10014000150300081503000815030008150300082F
:10015000150300081503000815030008150300081F
:10016000150300081503000815030008150300080F
:10017000150300081503000815030008000000001F
:1001800015030008150300081503000815030008EF
:1001900015030008150300081503000815030008DF
:0C01A000150300081503000815030008F3
:1001AC0010B5054C237833B9044B13B10448AFF3A5
:1001BC0000800123237010BD00000020000000000F
:1001CC006003000808B5034B1BB103490348AFF3A8
:1001DC00008008BD0000000004000020600300083F
:1001EC00034AD2F8883043F47003C2F88830704761
:1001FC0000ED00E008B500F023F800F041F807E04E
:10020C00A2F58062D2F8183443F08003C2F8183497
:10021C00094A936943F480439361084BD3F810382F
:10022C0013F4005FECD1054AD2F8183443F4000300
:10023C00C2F81834ECE700BF000402400000024092
:10024C000D4AD2F8303843F00603C2F830380B4B65
:10025C00D3F8002442F48042C3F80024D3F80824D5
:10026C0042F48042C3F80824D3F8182442F4000264
:10027C00C3F81824704700BF003002400000024051
:10028C000B4A136B43F0020313630A4B1A6842F0D8
:10029C0080521A605A6822F480425A609A6842F07E
:1002AC0080529A609A6942F080429A61704700BF0E
:1002BC000038024000040240DFF834D00D480E49EB
:1002CC000E4A002302E0D458C4500433C4188C42A4
:1002DC00F9D30B4A0B4C002301E013600432A24209
:1002EC00FBD3FFF77DFF00F011F8FFF783FF70479A
:1002FC000000032000000020000000208003000804
:10030C00000000201C000020FEE7000070B50D4D21
:10031C000D4C641BA4100026A64209D10B4D0C4CAD
:10032C0000F018F8641BA4100026A64205D170BD7D
:10033C0055F8043B98470136EEE755F8043B9847CF
:10034C000136F2E778030008780300087803000808
:10035C007C030008F8B500BFF8BC08BC9E4670478B
:0C036C00F8B500BFF8BC08BC9E46704706
:04037800D1010008A7
:04037C00AD010008C7
:04000005080002C528
:00000001FF
